{
  "contractName": "Marketplace",
  "abi": [
    {
      "inputs": [],
      "stateMutability": "nonpayable",
      "type": "constructor"
    },
    {
      "anonymous": false,
      "inputs": [
        {
          "indexed": false,
          "internalType": "address",
          "name": "nftContract",
          "type": "address"
        },
        {
          "indexed": false,
          "internalType": "uint256",
          "name": "tokenId",
          "type": "uint256"
        },
        {
          "indexed": false,
          "internalType": "address",
          "name": "seller",
          "type": "address"
        },
        {
          "indexed": false,
          "internalType": "address",
          "name": "owner",
          "type": "address"
        },
        {
          "indexed": false,
          "internalType": "uint256",
          "name": "price",
          "type": "uint256"
        }
      ],
      "name": "NFTListed",
      "type": "event"
    },
    {
      "anonymous": false,
      "inputs": [
        {
          "indexed": false,
          "internalType": "address",
          "name": "nftContract",
          "type": "address"
        },
        {
          "indexed": false,
          "internalType": "uint256",
          "name": "tokenId",
          "type": "uint256"
        },
        {
          "indexed": false,
          "internalType": "address",
          "name": "seller",
          "type": "address"
        },
        {
          "indexed": false,
          "internalType": "address",
          "name": "owner",
          "type": "address"
        },
        {
          "indexed": false,
          "internalType": "uint256",
          "name": "price",
          "type": "uint256"
        }
      ],
      "name": "NFTSold",
      "type": "event"
    },
    {
      "inputs": [],
      "name": "LISTING_FEE",
      "outputs": [
        {
          "internalType": "uint256",
          "name": "",
          "type": "uint256"
        }
      ],
      "stateMutability": "view",
      "type": "function",
      "constant": true
    },
    {
      "inputs": [
        {
          "internalType": "address",
          "name": "_nftContract",
          "type": "address"
        },
        {
          "internalType": "uint256",
          "name": "_tokenId",
          "type": "uint256"
        },
        {
          "internalType": "uint256",
          "name": "_price",
          "type": "uint256"
        }
      ],
      "name": "listNft",
      "outputs": [],
      "stateMutability": "payable",
      "type": "function",
      "payable": true
    },
    {
      "inputs": [
        {
          "internalType": "address",
          "name": "_nftContract",
          "type": "address"
        },
        {
          "internalType": "uint256",
          "name": "_tokenId",
          "type": "uint256"
        }
      ],
      "name": "buyNft",
      "outputs": [],
      "stateMutability": "payable",
      "type": "function",
      "payable": true
    },
    {
      "inputs": [
        {
          "internalType": "address",
          "name": "_nftContract",
          "type": "address"
        },
        {
          "internalType": "uint256",
          "name": "_tokenId",
          "type": "uint256"
        },
        {
          "internalType": "uint256",
          "name": "_price",
          "type": "uint256"
        }
      ],
      "name": "resellNft",
      "outputs": [],
      "stateMutability": "payable",
      "type": "function",
      "payable": true
    },
    {
      "inputs": [],
      "name": "getListingFee",
      "outputs": [
        {
          "internalType": "uint256",
          "name": "",
          "type": "uint256"
        }
      ],
      "stateMutability": "view",
      "type": "function",
      "constant": true
    },
    {
      "inputs": [],
      "name": "getListedNfts",
      "outputs": [
        {
          "components": [
            {
              "internalType": "address",
              "name": "nftContract",
              "type": "address"
            },
            {
              "internalType": "uint256",
              "name": "tokenId",
              "type": "uint256"
            },
            {
              "internalType": "address payable",
              "name": "seller",
              "type": "address"
            },
            {
              "internalType": "address payable",
              "name": "owner",
              "type": "address"
            },
            {
              "internalType": "uint256",
              "name": "price",
              "type": "uint256"
            },
            {
              "internalType": "bool",
              "name": "listed",
              "type": "bool"
            }
          ],
          "internalType": "struct Marketplace.NFT[]",
          "name": "",
          "type": "tuple[]"
        }
      ],
      "stateMutability": "view",
      "type": "function",
      "constant": true
    },
    {
      "inputs": [],
      "name": "getMyNfts",
      "outputs": [
        {
          "components": [
            {
              "internalType": "address",
              "name": "nftContract",
              "type": "address"
            },
            {
              "internalType": "uint256",
              "name": "tokenId",
              "type": "uint256"
            },
            {
              "internalType": "address payable",
              "name": "seller",
              "type": "address"
            },
            {
              "internalType": "address payable",
              "name": "owner",
              "type": "address"
            },
            {
              "internalType": "uint256",
              "name": "price",
              "type": "uint256"
            },
            {
              "internalType": "bool",
              "name": "listed",
              "type": "bool"
            }
          ],
          "internalType": "struct Marketplace.NFT[]",
          "name": "",
          "type": "tuple[]"
        }
      ],
      "stateMutability": "view",
      "type": "function",
      "constant": true
    },
    {
      "inputs": [],
      "name": "getMyListedNfts",
      "outputs": [
        {
          "components": [
            {
              "internalType": "address",
              "name": "nftContract",
              "type": "address"
            },
            {
              "internalType": "uint256",
              "name": "tokenId",
              "type": "uint256"
            },
            {
              "internalType": "address payable",
              "name": "seller",
              "type": "address"
            },
            {
              "internalType": "address payable",
              "name": "owner",
              "type": "address"
            },
            {
              "internalType": "uint256",
              "name": "price",
              "type": "uint256"
            },
            {
              "internalType": "bool",
              "name": "listed",
              "type": "bool"
            }
          ],
          "internalType": "struct Marketplace.NFT[]",
          "name": "",
          "type": "tuple[]"
        }
      ],
      "stateMutability": "view",
      "type": "function",
      "constant": true
    }
  ],
  "bytecode": "0x6080604052655af3107a400060035534801561001a57600080fd5b506001600055600480546001600160a01b031916331790556110b4806100416000396000f3fe60806040526004361061007b5760003560e01c80634ddf4f8f1161004e5780634ddf4f8f146100f95780638d6cb3fb1461010c578063b8fe6abe14610121578063c922b17c1461013657600080fd5b8063047b07bf146100805780631f4cc4db146100ab5780632b86ae38146100c057806334f5b624146100e4575b600080fd5b34801561008c57600080fd5b50610095610149565b6040516100a29190610ef1565b60405180910390f35b3480156100b757600080fd5b50610095610337565b3480156100cc57600080fd5b506100d660035481565b6040519081526020016100a2565b6100f76100f2366004610f97565b610579565b005b6100f7610107366004610fca565b6107a3565b34801561011857600080fd5b50610095610a68565b34801561012d57600080fd5b506003546100d6565b6100f7610144366004610f97565b610bfd565b6060600061015660025490565b90506000805b828110156101b657336005600061017484600161100a565b81526020810191909152604001600020600301546001600160a01b0316036101a457816101a081611022565b9250505b806101ae81611022565b91505061015c565b5060008167ffffffffffffffff8111156101d2576101d261103b565b60405190808252806020026020018201604052801561023257816020015b6040805160c08101825260008082526020808301829052928201819052606082018190526080820181905260a082015282526000199092019101816101f05790505b5090506000805b8481101561032d57336005600061025184600161100a565b81526020810191909152604001600020600301546001600160a01b03160361031b576005600061028283600161100a565b81526020808201929092526040908101600020815160c08101835281546001600160a01b0390811682526001830154948201949094526002820154841692810192909252600381015490921660608201526004820154608082015260059091015460ff16151560a0820152835184908490811061030157610301611051565b6020026020010181905250818061031790611022565b9250505b8061032581611022565b915050610239565b5090949350505050565b6060600061034460025490565b90506000805b828110156103d357336005600061036284600161100a565b81526020810191909152604001600020600201546001600160a01b03161480156103ae57506005600061039683600161100a565b815260208101919091526040016000206005015460ff165b156103c157816103bd81611022565b9250505b806103cb81611022565b91505061034a565b5060008167ffffffffffffffff8111156103ef576103ef61103b565b60405190808252806020026020018201604052801561044f57816020015b6040805160c08101825260008082526020808301829052928201819052606082018190526080820181905260a0820152825260001990920191018161040d5790505b5090506000805b8481101561032d57336005600061046e84600161100a565b81526020810191909152604001600020600201546001600160a01b03161480156104ba5750600560006104a283600161100a565b815260208101919091526040016000206005015460ff165b1561056757600560006104ce83600161100a565b81526020808201929092526040908101600020815160c08101835281546001600160a01b0390811682526001830154948201949094526002820154841692810192909252600381015490921660608201526004820154608082015260059091015460ff16151560a0820152835184908490811061054d5761054d611051565b6020026020010181905250818061056390611022565b9250505b8061057181611022565b915050610456565b6002600054036105d05760405162461bcd60e51b815260206004820152601f60248201527f5265656e7472616e637947756172643a207265656e7472616e742063616c6c0060448201526064015b60405180910390fd5b6002600055806106225760405162461bcd60e51b815260206004820152601c60248201527f5072696365206d757374206265206174206c656173742031207765690000000060448201526064016105c7565b60035434146106735760405162461bcd60e51b815260206004820181905260248201527f4e6f7420656e6f75676820657468657220666f72206c697374696e672066656560448201526064016105c7565b6040516323b872dd60e01b8152336004820152306024820152604481018390526001600160a01b038416906323b872dd90606401600060405180830381600087803b1580156106c157600080fd5b505af11580156106d5573d6000803e3d6000fd5b505050600083815260056020819052604090912060028101805473ffffffffffffffffffffffffffffffffffffffff19908116331790915560038201805490911630179055908101805460ff191660019081179091556004820184905590915061073e90610e9a565b604080516001600160a01b0386168152602081018590523391810191909152306060820152608081018390527fa0c6c0d02d86fdacecbaa5fdf5894bab204e31a778250474108540733a9b8d199060a0015b60405180910390a1505060016000555050565b6002600054036107f55760405162461bcd60e51b815260206004820152601f60248201527f5265656e7472616e637947756172643a207265656e7472616e742063616c6c0060448201526064016105c7565b600260009081558181526005602052604090206003810154306001600160a01b03909116036108665760405162461bcd60e51b815260206004820152601a60248201527f796f752063616e27742062757920796f7572206f776e206e667400000000000060448201526064016105c7565b80600401543410156108e05760405162461bcd60e51b815260206004820152602660248201527f4e6f7420656e6f75676820657468657220746f20636f7665722061736b696e6760448201527f207072696365000000000000000000000000000000000000000000000000000060648201526084016105c7565b600281015460405133916001600160a01b0316903480156108fc02916000818181858888f1935050505015801561091b573d6000803e3d6000fd5b5060018201546040516323b872dd60e01b81523060048201526001600160a01b0383811660248301526044820192909252908516906323b872dd90606401600060405180830381600087803b15801561097357600080fd5b505af1158015610987573d6000803e3d6000fd5b50506004546003546040516001600160a01b03909216935080156108fc029250906000818181858888f193505050501580156109c7573d6000803e3d6000fd5b5060038201805473ffffffffffffffffffffffffffffffffffffffff19166001600160a01b03831617905560058201805460ff19169055600180548101905560018201546002830154604080516001600160a01b03808916825260208201949094529183169082015290821660608201523460808201527f16f1dbd97e6bf646d429ed186cce832f1f7fd9907814293b83181e9970ab7bd29060a001610790565b60606000610a7560025490565b90506000610a8260015490565b610a8c9083611067565b905060008167ffffffffffffffff811115610aa957610aa961103b565b604051908082528060200260200182016040528015610b0957816020015b6040805160c08101825260008082526020808301829052928201819052606082018190526080820181905260a08201528252600019909201910181610ac75790505b5090506000805b8481101561032d5760056000610b2783600161100a565b815260208101919091526040016000206005015460ff1615610beb5760056000610b5283600161100a565b81526020808201929092526040908101600020815160c08101835281546001600160a01b0390811682526001830154948201949094526002820154841692810192909252600381015490921660608201526004820154608082015260059091015460ff16151560a08201528351849084908110610bd157610bd1611051565b60200260200101819052508180610be790611022565b9250505b80610bf581611022565b915050610b10565b600260005403610c4f5760405162461bcd60e51b815260206004820152601f60248201527f5265656e7472616e637947756172643a207265656e7472616e742063616c6c0060448201526064016105c7565b600260005580610ca15760405162461bcd60e51b815260206004820152601c60248201527f5072696365206d757374206265206174206c656173742031207765690000000060448201526064016105c7565b6003543414610cf25760405162461bcd60e51b815260206004820181905260248201527f4e6f7420656e6f75676820657468657220666f72206c697374696e672066656560448201526064016105c7565b6040516323b872dd60e01b8152336004820152306024820152604481018390526001600160a01b038416906323b872dd90606401600060405180830381600087803b158015610d4057600080fd5b505af1158015610d54573d6000803e3d6000fd5b50505050610d66600280546001019055565b6040805160c0810182526001600160a01b0380861682526020808301868152338486018181523060608701818152608088018a8152600160a08a0181815260008e81526005998a90528c90209a518b54908b1673ffffffffffffffffffffffffffffffffffffffff19918216178c559751918b0191909155935160028a018054918a1691881691909117905590516003890180549190981695169490941790955591516004860155905193909101805493151560ff199094169390931790925591517fa0c6c0d02d86fdacecbaa5fdf5894bab204e31a778250474108540733a9b8d1992610e8892879287929087906001600160a01b039586168152602081019490945291841660408401529092166060820152608081019190915260a00190565b60405180910390a15050600160005550565b805480610ee95760405162461bcd60e51b815260206004820152601b60248201527f436f756e7465723a2064656372656d656e74206f766572666c6f77000000000060448201526064016105c7565b600019019055565b602080825282518282018190526000919060409081850190868401855b82811015610f6e57815180516001600160a01b039081168652878201518887015286820151811687870152606080830151909116908601526080808201519086015260a09081015115159085015260c09093019290850190600101610f0e565b5091979650505050505050565b80356001600160a01b0381168114610f9257600080fd5b919050565b600080600060608486031215610fac57600080fd5b610fb584610f7b565b95602085013595506040909401359392505050565b60008060408385031215610fdd57600080fd5b610fe683610f7b565b946020939093013593505050565b634e487b7160e01b600052601160045260246000fd5b6000821982111561101d5761101d610ff4565b500190565b60006001820161103457611034610ff4565b5060010190565b634e487b7160e01b600052604160045260246000fd5b634e487b7160e01b600052603260045260246000fd5b60008282101561107957611079610ff4565b50039056fea2646970667358221220c72b5bffb0c4fef96fecd5fc32fd4552c05f00568693708bc2b6c6ea4cb2c08264736f6c634300080d0033",
  "immutableReferences": {},
  "source": "// SPDX-License-Identifier: MIT\npragma solidity >=0.8.13;\n\nimport \"@openzeppelin/contracts/utils/Counters.sol\";\nimport \"@openzeppelin/contracts/token/ERC721/ERC721.sol\";\nimport \"@openzeppelin/contracts/security/ReentrancyGuard.sol\";\n\ncontract Marketplace is ReentrancyGuard {\n    using Counters for Counters.Counter;\n    Counters.Counter private _nftsSold;\n    Counters.Counter private _nftCount;\n    uint256 public LISTING_FEE = 0.0001 ether;\n    address payable private _marketOwner;\n    mapping(uint256 => NFT) private _idToNFT;\n    struct NFT {\n        address nftContract;\n        uint256 tokenId;\n        address payable seller;\n        address payable owner;\n        uint256 price;\n        bool listed;\n    }\n    event NFTListed(\n        address nftContract,\n        uint256 tokenId,\n        address seller,\n        address owner,\n        uint256 price\n    );\n    event NFTSold(\n        address nftContract,\n        uint256 tokenId,\n        address seller,\n        address owner,\n        uint256 price\n    );\n\n    constructor() {\n        _marketOwner = payable(msg.sender);\n    }\n\n    // List the NFT on the marketplace\n    function listNft(\n        address _nftContract,\n        uint256 _tokenId,\n        uint256 _price\n    ) public payable nonReentrant {\n        require(_price > 0, \"Price must be at least 1 wei\");\n        require(msg.value == LISTING_FEE, \"Not enough ether for listing fee\");\n\n        IERC721(_nftContract).transferFrom(msg.sender, address(this), _tokenId);\n\n        _nftCount.increment();\n\n        _idToNFT[_tokenId] = NFT(\n            _nftContract,\n            _tokenId,\n            payable(msg.sender),\n            payable(address(this)),\n            _price,\n            true\n        );\n\n        emit NFTListed(\n            _nftContract,\n            _tokenId,\n            msg.sender,\n            address(this),\n            _price\n        );\n    }\n\n    // Buy an NFT\n    function buyNft(address _nftContract, uint256 _tokenId)\n        public\n        payable\n        nonReentrant\n    {\n        NFT storage nft = _idToNFT[_tokenId];\n        require(nft.owner != address(this), \"you can't buy your own nft\");\n        require(\n            msg.value >= nft.price,\n            \"Not enough ether to cover asking price\"\n        );\n\n        address payable buyer = payable(msg.sender);\n        payable(nft.seller).transfer(msg.value);\n        IERC721(_nftContract).transferFrom(address(this), buyer, nft.tokenId);\n        _marketOwner.transfer(LISTING_FEE);\n        nft.owner = buyer;\n        nft.listed = false;\n\n        _nftsSold.increment();\n        emit NFTSold(_nftContract, nft.tokenId, nft.seller, buyer, msg.value);\n    }\n\n    // Resell an NFT purchased from the marketplace\n    function resellNft(\n        address _nftContract,\n        uint256 _tokenId,\n        uint256 _price\n    ) public payable nonReentrant {\n        require(_price > 0, \"Price must be at least 1 wei\");\n        require(msg.value == LISTING_FEE, \"Not enough ether for listing fee\");\n\n        IERC721(_nftContract).transferFrom(msg.sender, address(this), _tokenId);\n\n        NFT storage nft = _idToNFT[_tokenId];\n        nft.seller = payable(msg.sender);\n        nft.owner = payable(address(this));\n        nft.listed = true;\n        nft.price = _price;\n\n        _nftsSold.decrement();\n        emit NFTListed(\n            _nftContract,\n            _tokenId,\n            msg.sender,\n            address(this),\n            _price\n        );\n    }\n\n    function getListingFee() public view returns (uint256) {\n        return LISTING_FEE;\n    }\n\n    function getListedNfts() public view returns (NFT[] memory) {\n        uint256 nftCount = _nftCount.current();\n        uint256 unsoldNftsCount = nftCount - _nftsSold.current();\n\n        NFT[] memory nfts = new NFT[](unsoldNftsCount);\n        uint256 nftsIndex = 0;\n        for (uint256 i = 0; i < nftCount; i++) {\n            if (_idToNFT[i + 1].listed) {\n                nfts[nftsIndex] = _idToNFT[i + 1];\n                nftsIndex++;\n            }\n        }\n        return nfts;\n    }\n\n    function getMyNfts() public view returns (NFT[] memory) {\n        uint256 nftCount = _nftCount.current();\n        uint256 myNftCount = 0;\n        for (uint256 i = 0; i < nftCount; i++) {\n            if (_idToNFT[i + 1].owner == msg.sender) {\n                myNftCount++;\n            }\n        }\n\n        NFT[] memory nfts = new NFT[](myNftCount);\n        uint256 nftsIndex = 0;\n        for (uint256 i = 0; i < nftCount; i++) {\n            if (_idToNFT[i + 1].owner == msg.sender) {\n                nfts[nftsIndex] = _idToNFT[i + 1];\n                nftsIndex++;\n            }\n        }\n        return nfts;\n    }\n\n    function getMyListedNfts() public view returns (NFT[] memory) {\n        uint256 nftCount = _nftCount.current();\n        uint256 myListedNftCount = 0;\n        for (uint256 i = 0; i < nftCount; i++) {\n            if (\n                _idToNFT[i + 1].seller == msg.sender && _idToNFT[i + 1].listed\n            ) {\n                myListedNftCount++;\n            }\n        }\n\n        NFT[] memory nfts = new NFT[](myListedNftCount);\n        uint256 nftsIndex = 0;\n        for (uint256 i = 0; i < nftCount; i++) {\n            if (\n                _idToNFT[i + 1].seller == msg.sender && _idToNFT[i + 1].listed\n            ) {\n                nfts[nftsIndex] = _idToNFT[i + 1];\n                nftsIndex++;\n            }\n        }\n        return nfts;\n    }\n}\n",
  "sourcePath": "/home/secondport/Documents/NFT-Marketplace/contracts/optimism/Marketplace.sol",
  "compiler": {
    "name": "solc",
    "version": "0.8.13+commit.abaa5c0e.Emscripten.clang"
  },
  "schemaVersion": "3.4.7",
  "updatedAt": "2022-06-08T20:59:32.720Z",
  "networkType": "ethereum",
  "devdoc": {
    "kind": "dev",
    "methods": {},
    "version": 1
  },
  "userdoc": {
    "kind": "user",
    "methods": {},
    "version": 1
  }
}