{
  "contractName": "BoredStudent",
  "abi": [
    {
      "inputs": [
        {
          "internalType": "address",
          "name": "_marketplaceContract",
          "type": "address"
        }
      ],
      "stateMutability": "nonpayable",
      "type": "constructor"
    },
    {
      "anonymous": false,
      "inputs": [
        {
          "indexed": true,
          "internalType": "address",
          "name": "owner",
          "type": "address"
        },
        {
          "indexed": true,
          "internalType": "address",
          "name": "approved",
          "type": "address"
        },
        {
          "indexed": true,
          "internalType": "uint256",
          "name": "tokenId",
          "type": "uint256"
        }
      ],
      "name": "Approval",
      "type": "event"
    },
    {
      "anonymous": false,
      "inputs": [
        {
          "indexed": true,
          "internalType": "address",
          "name": "owner",
          "type": "address"
        },
        {
          "indexed": true,
          "internalType": "address",
          "name": "operator",
          "type": "address"
        },
        {
          "indexed": false,
          "internalType": "bool",
          "name": "approved",
          "type": "bool"
        }
      ],
      "name": "ApprovalForAll",
      "type": "event"
    },
    {
      "anonymous": false,
      "inputs": [
        {
          "indexed": false,
          "internalType": "uint256",
          "name": "",
          "type": "uint256"
        }
      ],
      "name": "NFTMinted",
      "type": "event"
    },
    {
      "anonymous": false,
      "inputs": [
        {
          "indexed": true,
          "internalType": "address",
          "name": "from",
          "type": "address"
        },
        {
          "indexed": true,
          "internalType": "address",
          "name": "to",
          "type": "address"
        },
        {
          "indexed": true,
          "internalType": "uint256",
          "name": "tokenId",
          "type": "uint256"
        }
      ],
      "name": "Transfer",
      "type": "event"
    },
    {
      "inputs": [
        {
          "internalType": "address",
          "name": "to",
          "type": "address"
        },
        {
          "internalType": "uint256",
          "name": "tokenId",
          "type": "uint256"
        }
      ],
      "name": "approve",
      "outputs": [],
      "stateMutability": "nonpayable",
      "type": "function"
    },
    {
      "inputs": [
        {
          "internalType": "address",
          "name": "owner",
          "type": "address"
        }
      ],
      "name": "balanceOf",
      "outputs": [
        {
          "internalType": "uint256",
          "name": "",
          "type": "uint256"
        }
      ],
      "stateMutability": "view",
      "type": "function",
      "constant": true
    },
    {
      "inputs": [
        {
          "internalType": "uint256",
          "name": "tokenId",
          "type": "uint256"
        }
      ],
      "name": "getApproved",
      "outputs": [
        {
          "internalType": "address",
          "name": "",
          "type": "address"
        }
      ],
      "stateMutability": "view",
      "type": "function",
      "constant": true
    },
    {
      "inputs": [
        {
          "internalType": "address",
          "name": "owner",
          "type": "address"
        },
        {
          "internalType": "address",
          "name": "operator",
          "type": "address"
        }
      ],
      "name": "isApprovedForAll",
      "outputs": [
        {
          "internalType": "bool",
          "name": "",
          "type": "bool"
        }
      ],
      "stateMutability": "view",
      "type": "function",
      "constant": true
    },
    {
      "inputs": [],
      "name": "name",
      "outputs": [
        {
          "internalType": "string",
          "name": "",
          "type": "string"
        }
      ],
      "stateMutability": "view",
      "type": "function",
      "constant": true
    },
    {
      "inputs": [
        {
          "internalType": "uint256",
          "name": "tokenId",
          "type": "uint256"
        }
      ],
      "name": "ownerOf",
      "outputs": [
        {
          "internalType": "address",
          "name": "",
          "type": "address"
        }
      ],
      "stateMutability": "view",
      "type": "function",
      "constant": true
    },
    {
      "inputs": [
        {
          "internalType": "address",
          "name": "from",
          "type": "address"
        },
        {
          "internalType": "address",
          "name": "to",
          "type": "address"
        },
        {
          "internalType": "uint256",
          "name": "tokenId",
          "type": "uint256"
        }
      ],
      "name": "safeTransferFrom",
      "outputs": [],
      "stateMutability": "nonpayable",
      "type": "function"
    },
    {
      "inputs": [
        {
          "internalType": "address",
          "name": "from",
          "type": "address"
        },
        {
          "internalType": "address",
          "name": "to",
          "type": "address"
        },
        {
          "internalType": "uint256",
          "name": "tokenId",
          "type": "uint256"
        },
        {
          "internalType": "bytes",
          "name": "_data",
          "type": "bytes"
        }
      ],
      "name": "safeTransferFrom",
      "outputs": [],
      "stateMutability": "nonpayable",
      "type": "function"
    },
    {
      "inputs": [
        {
          "internalType": "address",
          "name": "operator",
          "type": "address"
        },
        {
          "internalType": "bool",
          "name": "approved",
          "type": "bool"
        }
      ],
      "name": "setApprovalForAll",
      "outputs": [],
      "stateMutability": "nonpayable",
      "type": "function"
    },
    {
      "inputs": [
        {
          "internalType": "bytes4",
          "name": "interfaceId",
          "type": "bytes4"
        }
      ],
      "name": "supportsInterface",
      "outputs": [
        {
          "internalType": "bool",
          "name": "",
          "type": "bool"
        }
      ],
      "stateMutability": "view",
      "type": "function",
      "constant": true
    },
    {
      "inputs": [],
      "name": "symbol",
      "outputs": [
        {
          "internalType": "string",
          "name": "",
          "type": "string"
        }
      ],
      "stateMutability": "view",
      "type": "function",
      "constant": true
    },
    {
      "inputs": [
        {
          "internalType": "uint256",
          "name": "tokenId",
          "type": "uint256"
        }
      ],
      "name": "tokenURI",
      "outputs": [
        {
          "internalType": "string",
          "name": "",
          "type": "string"
        }
      ],
      "stateMutability": "view",
      "type": "function",
      "constant": true
    },
    {
      "inputs": [
        {
          "internalType": "address",
          "name": "from",
          "type": "address"
        },
        {
          "internalType": "address",
          "name": "to",
          "type": "address"
        },
        {
          "internalType": "uint256",
          "name": "tokenId",
          "type": "uint256"
        }
      ],
      "name": "transferFrom",
      "outputs": [],
      "stateMutability": "nonpayable",
      "type": "function"
    },
    {
      "inputs": [
        {
          "internalType": "string",
          "name": "_tokenURI",
          "type": "string"
        }
      ],
      "name": "mint",
      "outputs": [],
      "stateMutability": "nonpayable",
      "type": "function"
    }
  ],
  "bytecode": "0x60806040523480156200001157600080fd5b5060405162002f4438038062002f44833981810160405281019062000037919062000239565b6040518060400160405280601281526020017f426f7265642053747564656e7420436c756200000000000000000000000000008152506040518060400160405280600381526020017f42534300000000000000000000000000000000000000000000000000000000008152508160009080519060200190620000bb9291906200011f565b508060019080519060200190620000d49291906200011f565b50505080600860006101000a81548173ffffffffffffffffffffffffffffffffffffffff021916908373ffffffffffffffffffffffffffffffffffffffff16021790555050620002cf565b8280546200012d906200029a565b90600052602060002090601f0160209004810192826200015157600085556200019d565b82601f106200016c57805160ff19168380011785556200019d565b828001600101855582156200019d579182015b828111156200019c5782518255916020019190600101906200017f565b5b509050620001ac9190620001b0565b5090565b5b80821115620001cb576000816000905550600101620001b1565b5090565b600080fd5b600073ffffffffffffffffffffffffffffffffffffffff82169050919050565b60006200020182620001d4565b9050919050565b6200021381620001f4565b81146200021f57600080fd5b50565b600081519050620002338162000208565b92915050565b600060208284031215620002525762000251620001cf565b5b6000620002628482850162000222565b91505092915050565b7f4e487b7100000000000000000000000000000000000000000000000000000000600052602260045260246000fd5b60006002820490506001821680620002b357607f821691505b602082108103620002c957620002c86200026b565b5b50919050565b612c6580620002df6000396000f3fe608060405234801561001057600080fd5b50600436106100ea5760003560e01c806370a082311161008c578063b88d4fde11610066578063b88d4fde1461025b578063c87b56dd14610277578063d85d3d27146102a7578063e985e9c5146102c3576100ea565b806370a08231146101f157806395d89b4114610221578063a22cb4651461023f576100ea565b8063095ea7b3116100c8578063095ea7b31461016d57806323b872dd1461018957806342842e0e146101a55780636352211e146101c1576100ea565b806301ffc9a7146100ef57806306fdde031461011f578063081812fc1461013d575b600080fd5b610109600480360381019061010491906119dc565b6102f3565b6040516101169190611a24565b60405180910390f35b6101276103d5565b6040516101349190611ad8565b60405180910390f35b61015760048036038101906101529190611b30565b610467565b6040516101649190611b9e565b60405180910390f35b61018760048036038101906101829190611be5565b6104ec565b005b6101a3600480360381019061019e9190611c25565b610603565b005b6101bf60048036038101906101ba9190611c25565b610663565b005b6101db60048036038101906101d69190611b30565b610683565b6040516101e89190611b9e565b60405180910390f35b61020b60048036038101906102069190611c78565b610734565b6040516102189190611cb4565b60405180910390f35b6102296107eb565b6040516102369190611ad8565b60405180910390f35b61025960048036038101906102549190611cfb565b61087d565b005b61027560048036038101906102709190611e70565b610893565b005b610291600480360381019061028c9190611b30565b6108f5565b60405161029e9190611ad8565b60405180910390f35b6102c160048036038101906102bc9190611f94565b610a46565b005b6102dd60048036038101906102d89190611fdd565b610ada565b6040516102ea9190611a24565b60405180910390f35b60007f80ac58cd000000000000000000000000000000000000000000000000000000007bffffffffffffffffffffffffffffffffffffffffffffffffffffffff1916827bffffffffffffffffffffffffffffffffffffffffffffffffffffffff191614806103be57507f5b5e139f000000000000000000000000000000000000000000000000000000007bffffffffffffffffffffffffffffffffffffffffffffffffffffffff1916827bffffffffffffffffffffffffffffffffffffffffffffffffffffffff1916145b806103ce57506103cd82610b6e565b5b9050919050565b6060600080546103e49061204c565b80601f01602080910402602001604051908101604052809291908181526020018280546104109061204c565b801561045d5780601f106104325761010080835404028352916020019161045d565b820191906000526020600020905b81548152906001019060200180831161044057829003601f168201915b5050505050905090565b600061047282610bd8565b6104b1576040517f08c379a00000000000000000000000000000000000000000000000000000000081526004016104a8906120ef565b60405180910390fd5b6004600083815260200190815260200160002060009054906101000a900473ffffffffffffffffffffffffffffffffffffffff169050919050565b60006104f782610683565b90508073ffffffffffffffffffffffffffffffffffffffff168373ffffffffffffffffffffffffffffffffffffffff1603610567576040517f08c379a000000000000000000000000000000000000000000000000000000000815260040161055e90612181565b60405180910390fd5b8073ffffffffffffffffffffffffffffffffffffffff16610586610c44565b73ffffffffffffffffffffffffffffffffffffffff1614806105b557506105b4816105af610c44565b610ada565b5b6105f4576040517f08c379a00000000000000000000000000000000000000000000000000000000081526004016105eb90612213565b60405180910390fd5b6105fe8383610c4c565b505050565b61061461060e610c44565b82610d05565b610653576040517f08c379a000000000000000000000000000000000000000000000000000000000815260040161064a906122a5565b60405180910390fd5b61065e838383610de3565b505050565b61067e83838360405180602001604052806000815250610893565b505050565b6000806002600084815260200190815260200160002060009054906101000a900473ffffffffffffffffffffffffffffffffffffffff169050600073ffffffffffffffffffffffffffffffffffffffff168173ffffffffffffffffffffffffffffffffffffffff160361072b576040517f08c379a000000000000000000000000000000000000000000000000000000000815260040161072290612337565b60405180910390fd5b80915050919050565b60008073ffffffffffffffffffffffffffffffffffffffff168273ffffffffffffffffffffffffffffffffffffffff16036107a4576040517f08c379a000000000000000000000000000000000000000000000000000000000815260040161079b906123c9565b60405180910390fd5b600360008373ffffffffffffffffffffffffffffffffffffffff1673ffffffffffffffffffffffffffffffffffffffff168152602001908152602001600020549050919050565b6060600180546107fa9061204c565b80601f01602080910402602001604051908101604052809291908181526020018280546108269061204c565b80156108735780601f1061084857610100808354040283529160200191610873565b820191906000526020600020905b81548152906001019060200180831161085657829003601f168201915b5050505050905090565b61088f610888610c44565b8383611049565b5050565b6108a461089e610c44565b83610d05565b6108e3576040517f08c379a00000000000000000000000000000000000000000000000000000000081526004016108da906122a5565b60405180910390fd5b6108ef848484846111b5565b50505050565b606061090082610bd8565b61093f576040517f08c379a00000000000000000000000000000000000000000000000000000000081526004016109369061245b565b60405180910390fd5b600060066000848152602001908152602001600020805461095f9061204c565b80601f016020809104026020016040519081016040528092919081815260200182805461098b9061204c565b80156109d85780601f106109ad576101008083540402835291602001916109d8565b820191906000526020600020905b8154815290600101906020018083116109bb57829003601f168201915b5050505050905060006109e9611211565b905060008151036109fe578192505050610a41565b600082511115610a33578082604051602001610a1b9291906124b7565b60405160208183030381529060405292505050610a41565b610a3c84611228565b925050505b919050565b610a5060076112cf565b6000610a5c60076112e5565b9050610a6833826112f3565b610a728183611311565b610a9f600860009054906101000a900473ffffffffffffffffffffffffffffffffffffffff16600161087d565b7fd9dc24857f317ed9abbbb42e920ede0104231eb1d3d70236a74887ffaf15986881604051610ace9190611cb4565b60405180910390a15050565b6000600560008473ffffffffffffffffffffffffffffffffffffffff1673ffffffffffffffffffffffffffffffffffffffff16815260200190815260200160002060008373ffffffffffffffffffffffffffffffffffffffff1673ffffffffffffffffffffffffffffffffffffffff16815260200190815260200160002060009054906101000a900460ff16905092915050565b60007f01ffc9a7000000000000000000000000000000000000000000000000000000007bffffffffffffffffffffffffffffffffffffffffffffffffffffffff1916827bffffffffffffffffffffffffffffffffffffffffffffffffffffffff1916149050919050565b60008073ffffffffffffffffffffffffffffffffffffffff166002600084815260200190815260200160002060009054906101000a900473ffffffffffffffffffffffffffffffffffffffff1673ffffffffffffffffffffffffffffffffffffffff1614159050919050565b600033905090565b816004600083815260200190815260200160002060006101000a81548173ffffffffffffffffffffffffffffffffffffffff021916908373ffffffffffffffffffffffffffffffffffffffff160217905550808273ffffffffffffffffffffffffffffffffffffffff16610cbf83610683565b73ffffffffffffffffffffffffffffffffffffffff167f8c5be1e5ebec7d5bd14f71427d1e84f3dd0314c0f7b2291e5b200ac8c7c3b92560405160405180910390a45050565b6000610d1082610bd8565b610d4f576040517f08c379a0000000000000000000000000000000000000000000000000000000008152600401610d469061254d565b60405180910390fd5b6000610d5a83610683565b90508073ffffffffffffffffffffffffffffffffffffffff168473ffffffffffffffffffffffffffffffffffffffff161480610d9c5750610d9b8185610ada565b5b80610dda57508373ffffffffffffffffffffffffffffffffffffffff16610dc284610467565b73ffffffffffffffffffffffffffffffffffffffff16145b91505092915050565b8273ffffffffffffffffffffffffffffffffffffffff16610e0382610683565b73ffffffffffffffffffffffffffffffffffffffff1614610e59576040517f08c379a0000000000000000000000000000000000000000000000000000000008152600401610e50906125df565b60405180910390fd5b600073ffffffffffffffffffffffffffffffffffffffff168273ffffffffffffffffffffffffffffffffffffffff1603610ec8576040517f08c379a0000000000000000000000000000000000000000000000000000000008152600401610ebf90612671565b60405180910390fd5b610ed3838383611385565b610ede600082610c4c565b6001600360008573ffffffffffffffffffffffffffffffffffffffff1673ffffffffffffffffffffffffffffffffffffffff1681526020019081526020016000206000828254610f2e91906126c0565b925050819055506001600360008473ffffffffffffffffffffffffffffffffffffffff1673ffffffffffffffffffffffffffffffffffffffff1681526020019081526020016000206000828254610f8591906126f4565b92505081905550816002600083815260200190815260200160002060006101000a81548173ffffffffffffffffffffffffffffffffffffffff021916908373ffffffffffffffffffffffffffffffffffffffff160217905550808273ffffffffffffffffffffffffffffffffffffffff168473ffffffffffffffffffffffffffffffffffffffff167fddf252ad1be2c89b69c2b068fc378daa952ba7f163c4a11628f55a4df523b3ef60405160405180910390a461104483838361138a565b505050565b8173ffffffffffffffffffffffffffffffffffffffff168373ffffffffffffffffffffffffffffffffffffffff16036110b7576040517f08c379a00000000000000000000000000000000000000000000000000000000081526004016110ae90612796565b60405180910390fd5b80600560008573ffffffffffffffffffffffffffffffffffffffff1673ffffffffffffffffffffffffffffffffffffffff16815260200190815260200160002060008473ffffffffffffffffffffffffffffffffffffffff1673ffffffffffffffffffffffffffffffffffffffff16815260200190815260200160002060006101000a81548160ff0219169083151502179055508173ffffffffffffffffffffffffffffffffffffffff168373ffffffffffffffffffffffffffffffffffffffff167f17307eab39ab6107e8899845ad3d59bd9653f200f220920489ca2b5937696c31836040516111a89190611a24565b60405180910390a3505050565b6111c0848484610de3565b6111cc8484848461138f565b61120b576040517f08c379a000000000000000000000000000000000000000000000000000000000815260040161120290612828565b60405180910390fd5b50505050565b606060405180602001604052806000815250905090565b606061123382610bd8565b611272576040517f08c379a0000000000000000000000000000000000000000000000000000000008152600401611269906128ba565b60405180910390fd5b600061127c611211565b9050600081511161129c57604051806020016040528060008152506112c7565b806112a684611516565b6040516020016112b79291906124b7565b6040516020818303038152906040525b915050919050565b6001816000016000828254019250508190555050565b600081600001549050919050565b61130d828260405180602001604052806000815250611676565b5050565b61131a82610bd8565b611359576040517f08c379a00000000000000000000000000000000000000000000000000000000081526004016113509061294c565b60405180910390fd5b806006600084815260200190815260200160002090805190602001906113809291906118cd565b505050565b505050565b505050565b60006113b08473ffffffffffffffffffffffffffffffffffffffff166116d1565b15611509578373ffffffffffffffffffffffffffffffffffffffff1663150b7a026113d9610c44565b8786866040518563ffffffff1660e01b81526004016113fb94939291906129c1565b6020604051808303816000875af192505050801561143757506040513d601f19601f820116820180604052508101906114349190612a22565b60015b6114b9573d8060008114611467576040519150601f19603f3d011682016040523d82523d6000602084013e61146c565b606091505b5060008151036114b1576040517f08c379a00000000000000000000000000000000000000000000000000000000081526004016114a890612828565b60405180910390fd5b805181602001fd5b63150b7a0260e01b7bffffffffffffffffffffffffffffffffffffffffffffffffffffffff1916817bffffffffffffffffffffffffffffffffffffffffffffffffffffffff19161491505061150e565b600190505b949350505050565b60606000820361155d576040518060400160405280600181526020017f30000000000000000000000000000000000000000000000000000000000000008152509050611671565b600082905060005b6000821461158f57808061157890612a4f565b915050600a826115889190612ac6565b9150611565565b60008167ffffffffffffffff8111156115ab576115aa611d45565b5b6040519080825280601f01601f1916602001820160405280156115dd5781602001600182028036833780820191505090505b5090505b6000851461166a576001826115f691906126c0565b9150600a856116059190612af7565b603061161191906126f4565b60f81b81838151811061162757611626612b28565b5b60200101907effffffffffffffffffffffffffffffffffffffffffffffffffffffffffffff1916908160001a905350600a856116639190612ac6565b94506115e1565b8093505050505b919050565b61168083836116f4565b61168d600084848461138f565b6116cc576040517f08c379a00000000000000000000000000000000000000000000000000000000081526004016116c390612828565b60405180910390fd5b505050565b6000808273ffffffffffffffffffffffffffffffffffffffff163b119050919050565b600073ffffffffffffffffffffffffffffffffffffffff168273ffffffffffffffffffffffffffffffffffffffff1603611763576040517f08c379a000000000000000000000000000000000000000000000000000000000815260040161175a90612ba3565b60405180910390fd5b61176c81610bd8565b156117ac576040517f08c379a00000000000000000000000000000000000000000000000000000000081526004016117a390612c0f565b60405180910390fd5b6117b860008383611385565b6001600360008473ffffffffffffffffffffffffffffffffffffffff1673ffffffffffffffffffffffffffffffffffffffff168152602001908152602001600020600082825461180891906126f4565b92505081905550816002600083815260200190815260200160002060006101000a81548173ffffffffffffffffffffffffffffffffffffffff021916908373ffffffffffffffffffffffffffffffffffffffff160217905550808273ffffffffffffffffffffffffffffffffffffffff16600073ffffffffffffffffffffffffffffffffffffffff167fddf252ad1be2c89b69c2b068fc378daa952ba7f163c4a11628f55a4df523b3ef60405160405180910390a46118c96000838361138a565b5050565b8280546118d99061204c565b90600052602060002090601f0160209004810192826118fb5760008555611942565b82601f1061191457805160ff1916838001178555611942565b82800160010185558215611942579182015b82811115611941578251825591602001919060010190611926565b5b50905061194f9190611953565b5090565b5b8082111561196c576000816000905550600101611954565b5090565b6000604051905090565b600080fd5b600080fd5b60007fffffffff0000000000000000000000000000000000000000000000000000000082169050919050565b6119b981611984565b81146119c457600080fd5b50565b6000813590506119d6816119b0565b92915050565b6000602082840312156119f2576119f161197a565b5b6000611a00848285016119c7565b91505092915050565b60008115159050919050565b611a1e81611a09565b82525050565b6000602082019050611a396000830184611a15565b92915050565b600081519050919050565b600082825260208201905092915050565b60005b83811015611a79578082015181840152602081019050611a5e565b83811115611a88576000848401525b50505050565b6000601f19601f8301169050919050565b6000611aaa82611a3f565b611ab48185611a4a565b9350611ac4818560208601611a5b565b611acd81611a8e565b840191505092915050565b60006020820190508181036000830152611af28184611a9f565b905092915050565b6000819050919050565b611b0d81611afa565b8114611b1857600080fd5b50565b600081359050611b2a81611b04565b92915050565b600060208284031215611b4657611b4561197a565b5b6000611b5484828501611b1b565b91505092915050565b600073ffffffffffffffffffffffffffffffffffffffff82169050919050565b6000611b8882611b5d565b9050919050565b611b9881611b7d565b82525050565b6000602082019050611bb36000830184611b8f565b92915050565b611bc281611b7d565b8114611bcd57600080fd5b50565b600081359050611bdf81611bb9565b92915050565b60008060408385031215611bfc57611bfb61197a565b5b6000611c0a85828601611bd0565b9250506020611c1b85828601611b1b565b9150509250929050565b600080600060608486031215611c3e57611c3d61197a565b5b6000611c4c86828701611bd0565b9350506020611c5d86828701611bd0565b9250506040611c6e86828701611b1b565b9150509250925092565b600060208284031215611c8e57611c8d61197a565b5b6000611c9c84828501611bd0565b91505092915050565b611cae81611afa565b82525050565b6000602082019050611cc96000830184611ca5565b92915050565b611cd881611a09565b8114611ce357600080fd5b50565b600081359050611cf581611ccf565b92915050565b60008060408385031215611d1257611d1161197a565b5b6000611d2085828601611bd0565b9250506020611d3185828601611ce6565b9150509250929050565b600080fd5b600080fd5b7f4e487b7100000000000000000000000000000000000000000000000000000000600052604160045260246000fd5b611d7d82611a8e565b810181811067ffffffffffffffff82111715611d9c57611d9b611d45565b5b80604052505050565b6000611daf611970565b9050611dbb8282611d74565b919050565b600067ffffffffffffffff821115611ddb57611dda611d45565b5b611de482611a8e565b9050602081019050919050565b82818337600083830152505050565b6000611e13611e0e84611dc0565b611da5565b905082815260208101848484011115611e2f57611e2e611d40565b5b611e3a848285611df1565b509392505050565b600082601f830112611e5757611e56611d3b565b5b8135611e67848260208601611e00565b91505092915050565b60008060008060808587031215611e8a57611e8961197a565b5b6000611e9887828801611bd0565b9450506020611ea987828801611bd0565b9350506040611eba87828801611b1b565b925050606085013567ffffffffffffffff811115611edb57611eda61197f565b5b611ee787828801611e42565b91505092959194509250565b600067ffffffffffffffff821115611f0e57611f0d611d45565b5b611f1782611a8e565b9050602081019050919050565b6000611f37611f3284611ef3565b611da5565b905082815260208101848484011115611f5357611f52611d40565b5b611f5e848285611df1565b509392505050565b600082601f830112611f7b57611f7a611d3b565b5b8135611f8b848260208601611f24565b91505092915050565b600060208284031215611faa57611fa961197a565b5b600082013567ffffffffffffffff811115611fc857611fc761197f565b5b611fd484828501611f66565b91505092915050565b60008060408385031215611ff457611ff361197a565b5b600061200285828601611bd0565b925050602061201385828601611bd0565b9150509250929050565b7f4e487b7100000000000000000000000000000000000000000000000000000000600052602260045260246000fd5b6000600282049050600182168061206457607f821691505b6020821081036120775761207661201d565b5b50919050565b7f4552433732313a20617070726f76656420717565727920666f72206e6f6e657860008201527f697374656e7420746f6b656e0000000000000000000000000000000000000000602082015250565b60006120d9602c83611a4a565b91506120e48261207d565b604082019050919050565b60006020820190508181036000830152612108816120cc565b9050919050565b7f4552433732313a20617070726f76616c20746f2063757272656e74206f776e6560008201527f7200000000000000000000000000000000000000000000000000000000000000602082015250565b600061216b602183611a4a565b91506121768261210f565b604082019050919050565b6000602082019050818103600083015261219a8161215e565b9050919050565b7f4552433732313a20617070726f76652063616c6c6572206973206e6f74206f7760008201527f6e6572206e6f7220617070726f76656420666f7220616c6c0000000000000000602082015250565b60006121fd603883611a4a565b9150612208826121a1565b604082019050919050565b6000602082019050818103600083015261222c816121f0565b9050919050565b7f4552433732313a207472616e736665722063616c6c6572206973206e6f74206f60008201527f776e6572206e6f7220617070726f766564000000000000000000000000000000602082015250565b600061228f603183611a4a565b915061229a82612233565b604082019050919050565b600060208201905081810360008301526122be81612282565b9050919050565b7f4552433732313a206f776e657220717565727920666f72206e6f6e657869737460008201527f656e7420746f6b656e0000000000000000000000000000000000000000000000602082015250565b6000612321602983611a4a565b915061232c826122c5565b604082019050919050565b6000602082019050818103600083015261235081612314565b9050919050565b7f4552433732313a2062616c616e636520717565727920666f7220746865207a6560008201527f726f206164647265737300000000000000000000000000000000000000000000602082015250565b60006123b3602a83611a4a565b91506123be82612357565b604082019050919050565b600060208201905081810360008301526123e2816123a6565b9050919050565b7f45524337323155524953746f726167653a2055524920717565727920666f722060008201527f6e6f6e6578697374656e7420746f6b656e000000000000000000000000000000602082015250565b6000612445603183611a4a565b9150612450826123e9565b604082019050919050565b6000602082019050818103600083015261247481612438565b9050919050565b600081905092915050565b600061249182611a3f565b61249b818561247b565b93506124ab818560208601611a5b565b80840191505092915050565b60006124c38285612486565b91506124cf8284612486565b91508190509392505050565b7f4552433732313a206f70657261746f7220717565727920666f72206e6f6e657860008201527f697374656e7420746f6b656e0000000000000000000000000000000000000000602082015250565b6000612537602c83611a4a565b9150612542826124db565b604082019050919050565b600060208201905081810360008301526125668161252a565b9050919050565b7f4552433732313a207472616e736665722066726f6d20696e636f72726563742060008201527f6f776e6572000000000000000000000000000000000000000000000000000000602082015250565b60006125c9602583611a4a565b91506125d48261256d565b604082019050919050565b600060208201905081810360008301526125f8816125bc565b9050919050565b7f4552433732313a207472616e7366657220746f20746865207a65726f2061646460008201527f7265737300000000000000000000000000000000000000000000000000000000602082015250565b600061265b602483611a4a565b9150612666826125ff565b604082019050919050565b6000602082019050818103600083015261268a8161264e565b9050919050565b7f4e487b7100000000000000000000000000000000000000000000000000000000600052601160045260246000fd5b60006126cb82611afa565b91506126d683611afa565b9250828210156126e9576126e8612691565b5b828203905092915050565b60006126ff82611afa565b915061270a83611afa565b9250827fffffffffffffffffffffffffffffffffffffffffffffffffffffffffffffffff0382111561273f5761273e612691565b5b828201905092915050565b7f4552433732313a20617070726f766520746f2063616c6c657200000000000000600082015250565b6000612780601983611a4a565b915061278b8261274a565b602082019050919050565b600060208201905081810360008301526127af81612773565b9050919050565b7f4552433732313a207472616e7366657220746f206e6f6e20455243373231526560008201527f63656976657220696d706c656d656e7465720000000000000000000000000000602082015250565b6000612812603283611a4a565b915061281d826127b6565b604082019050919050565b6000602082019050818103600083015261284181612805565b9050919050565b7f4552433732314d657461646174613a2055524920717565727920666f72206e6f60008201527f6e6578697374656e7420746f6b656e0000000000000000000000000000000000602082015250565b60006128a4602f83611a4a565b91506128af82612848565b604082019050919050565b600060208201905081810360008301526128d381612897565b9050919050565b7f45524337323155524953746f726167653a2055524920736574206f66206e6f6e60008201527f6578697374656e7420746f6b656e000000000000000000000000000000000000602082015250565b6000612936602e83611a4a565b9150612941826128da565b604082019050919050565b6000602082019050818103600083015261296581612929565b9050919050565b600081519050919050565b600082825260208201905092915050565b60006129938261296c565b61299d8185612977565b93506129ad818560208601611a5b565b6129b681611a8e565b840191505092915050565b60006080820190506129d66000830187611b8f565b6129e36020830186611b8f565b6129f06040830185611ca5565b8181036060830152612a028184612988565b905095945050505050565b600081519050612a1c816119b0565b92915050565b600060208284031215612a3857612a3761197a565b5b6000612a4684828501612a0d565b91505092915050565b6000612a5a82611afa565b91507fffffffffffffffffffffffffffffffffffffffffffffffffffffffffffffffff8203612a8c57612a8b612691565b5b600182019050919050565b7f4e487b7100000000000000000000000000000000000000000000000000000000600052601260045260246000fd5b6000612ad182611afa565b9150612adc83611afa565b925082612aec57612aeb612a97565b5b828204905092915050565b6000612b0282611afa565b9150612b0d83611afa565b925082612b1d57612b1c612a97565b5b828206905092915050565b7f4e487b7100000000000000000000000000000000000000000000000000000000600052603260045260246000fd5b7f4552433732313a206d696e7420746f20746865207a65726f2061646472657373600082015250565b6000612b8d602083611a4a565b9150612b9882612b57565b602082019050919050565b60006020820190508181036000830152612bbc81612b80565b9050919050565b7f4552433732313a20746f6b656e20616c7265616479206d696e74656400000000600082015250565b6000612bf9601c83611a4a565b9150612c0482612bc3565b602082019050919050565b60006020820190508181036000830152612c2881612bec565b905091905056fea264697066735822122092a222d1ad0bf8d8c0e2312ce9ed00ebd2e8380caf0ef809add2ac45c4f7007a64736f6c634300080d0033",
  "immutableReferences": {},
  "source": "// SPDX-License-Identifier: MIT\npragma solidity ^0.8.13;\n\nimport \"../../node_modules/@openzeppelin/contracts/token/ERC721/ERC721.sol\";\nimport \"../../node_modules/@openzeppelin/contracts/token/ERC721/extensions/ERC721URIStorage.sol\";\nimport \"../../node_modules/@openzeppelin/contracts/utils/Counters.sol\";\n\ncontract BoredStudent is ERC721URIStorage {\n  using Counters for Counters.Counter;\n  Counters.Counter private _tokenIds;\n  address marketplaceContract;\n  event NFTMinted(uint256);\n\n  constructor(address _marketplaceContract) ERC721(\"Bored Student Club\", \"BSC\") {\n    marketplaceContract = _marketplaceContract;\n  }\n\n  function mint(string memory _tokenURI) public {\n    _tokenIds.increment();\n    uint256 newTokenId = _tokenIds.current();\n    _safeMint(msg.sender, newTokenId);\n    _setTokenURI(newTokenId, _tokenURI);\n    setApprovalForAll(marketplaceContract, true);\n    emit NFTMinted(newTokenId);\n  }\n}",
  "sourcePath": "/home/secondport/Documents/NFT-Marketplace/contracts/ethereum/BoredStudent.sol",
  "compiler": {
    "name": "solc",
    "version": "0.8.13+commit.abaa5c0e.Emscripten.clang"
  },
  "schemaVersion": "3.4.7",
  "updatedAt": "2022-05-31T15:03:53.919Z",
  "networkType": "ethereum",
  "devdoc": {
    "kind": "dev",
    "methods": {
      "approve(address,uint256)": {
        "details": "See {IERC721-approve}."
      },
      "balanceOf(address)": {
        "details": "See {IERC721-balanceOf}."
      },
      "getApproved(uint256)": {
        "details": "See {IERC721-getApproved}."
      },
      "isApprovedForAll(address,address)": {
        "details": "See {IERC721-isApprovedForAll}."
      },
      "name()": {
        "details": "See {IERC721Metadata-name}."
      },
      "ownerOf(uint256)": {
        "details": "See {IERC721-ownerOf}."
      },
      "safeTransferFrom(address,address,uint256)": {
        "details": "See {IERC721-safeTransferFrom}."
      },
      "safeTransferFrom(address,address,uint256,bytes)": {
        "details": "See {IERC721-safeTransferFrom}."
      },
      "setApprovalForAll(address,bool)": {
        "details": "See {IERC721-setApprovalForAll}."
      },
      "supportsInterface(bytes4)": {
        "details": "See {IERC165-supportsInterface}."
      },
      "symbol()": {
        "details": "See {IERC721Metadata-symbol}."
      },
      "tokenURI(uint256)": {
        "details": "See {IERC721Metadata-tokenURI}."
      },
      "transferFrom(address,address,uint256)": {
        "details": "See {IERC721-transferFrom}."
      }
    },
    "version": 1
  },
  "userdoc": {
    "kind": "user",
    "methods": {},
    "version": 1
  }
}